:1002200024022E02314020022BD2C043EAFF32C208
:10023000F2C032000000B240805A2001F240850036
:100240005700F24080005600E2D32100E2D32200A2
:10025000E2C32600E2C22A00E2C22E00B24010A58C
:100260002C01B24000A528013BC03A00B012D604D0
:1002700082431202094336400A023742B012AC05EB
:10028000C64C000016531783F923D2920C020D02BC
:10029000282055420B0275901200802475901000A2
:1002A0006D24B0129C0455420B0275901800312445
:1002B00075901E00B8247590200017242BB21124CD
:1002C00075901600222475901400B32475901A00BE
:1002D000182475901C004524043CB0123605BE3F1E
:1002E0002153B0123C05BA3F0343B0123605D24247
:1002F0000E025600D2420F025700D24210021602DE
:10030000AD3FB012360510420E0216420E021543E2
:10031000073C3640FEFFB24006A5100235400C00F7
:10032000B24000A52C01924210022801B643000001
:1003300092B32C01FD231583F3233690FEFFCD27C6
:100340003740800036F080FF369000110E280757A6
:1003500036F000FF369000120828075736F000FEEE
:10036000043C16420E0217421002354375960320D4
:100370001783FC23B23F82460002B33F3640E0FFC2
:1003800037402000B012AC057C9601242BD3178394
:10039000F9232BC2B0129C042BD29F3F16420E02AF
:1003A000174210022BB238243BD01000B012AC051B
:1003B00036900010062C36900001092CC64C000027
:1003C000253CB24000A52C01B24040A5280116B33F
:1003D0000320C24C14021A3CC24C1502869AFDFF3F
:1003E00008242BD33BB0200004203BD020008246C1
:1003F00000023690010204283BD23BB010000224D8
:100400003BC032001A421402864AFFFF165317837C
:10041000CD23B0129C04613FB012AC051783FC23BE
:10042000B0129C045E3FB240F00F0E02B2401000CA
:100430001002B24080000A02D24210020C02D242E4
:1004400010020D0282431202094336400A0227427B
:100450007C46B01240051783FB2316420E0217425A
:100460001002369000010A28B24614025C421402BF
:10047000B012400517835C421502013C7C46B01265
:1004800040051783EE23B2E312025C421202B0125F
:1004900040055C421302B0124005E03E18421202D1
:1004A000B012AC05C24C1202B012AC05C24C130221
:1004B00038E33BB20A24869AFEFF07243BB02000B3
:1004C00004201653824600022BD3189212020823EE
:1004D0002BB306233041E2B22800FD27E2B2280008
:1004E000FD23B24024026001E2B22800FD2715423C
:1004F00070010511051105118245020205118245A1
:100500000402B2801E000402574216023780030024
:10051000051105111753FD23355040A582452A01C9
:100520003542B24024026001929270010202FC2F17
:100530001583F72309437C409000023C7C40A000D7
:10054000C2430702C9EC120219E31BC3554207025A
:100550005545560500550C2E2E2E2E2E2E2E2E1ABB
:100560003434924270017201B2500C007201073CA7
:100570001BB30B208243620192B36201FD27E2C3E9
:1005800021000A3C4C11F62B1BE38243620192B31B
:100590006201FD27E2D32100925202027201D2537E
:1005A0000702F0900C0061FCD1233041C2430902E4
:1005B0001BC3554209025545BC0500550C565656FD
:1005C0005656565656367600E2B22800FD23924221
:1005D000700172019252040272018243620192B36D
:1005E0006201FD27E2B228001E282BD31C3C4C10D0
:1005F0001A3C8243620192B36201FD27E2B22800F5
:1006000001281BE31BB301242BD3C9EC120219E30D
:100610000A3C8243620192B36201FD27E2B22800E4
:10062000E62B4C101BE3925202027201D2530902D4
:10063000C03F8243620192B36201FD27E2B228000B
:06064000012C2BD3304118
:00000001FF
